{
  "contractName": "EggNFT",
  "abi": [
    {
      "inputs": [
        {
          "internalType": "contract ERC20",
          "name": "_paymentCurrency",
          "type": "address"
        }
      ],
      "stateMutability": "nonpayable",
      "type": "constructor"
    },
    {
      "anonymous": false,
      "inputs": [
        {
          "indexed": true,
          "internalType": "address",
          "name": "owner",
          "type": "address"
        },
        {
          "indexed": true,
          "internalType": "address",
          "name": "approved",
          "type": "address"
        },
        {
          "indexed": true,
          "internalType": "uint256",
          "name": "tokenId",
          "type": "uint256"
        }
      ],
      "name": "Approval",
      "type": "event"
    },
    {
      "anonymous": false,
      "inputs": [
        {
          "indexed": true,
          "internalType": "address",
          "name": "owner",
          "type": "address"
        },
        {
          "indexed": true,
          "internalType": "address",
          "name": "operator",
          "type": "address"
        },
        {
          "indexed": false,
          "internalType": "bool",
          "name": "approved",
          "type": "bool"
        }
      ],
      "name": "ApprovalForAll",
      "type": "event"
    },
    {
      "anonymous": false,
      "inputs": [
        {
          "indexed": true,
          "internalType": "address",
          "name": "previousOwner",
          "type": "address"
        },
        {
          "indexed": true,
          "internalType": "address",
          "name": "newOwner",
          "type": "address"
        }
      ],
      "name": "OwnershipTransferred",
      "type": "event"
    },
    {
      "anonymous": false,
      "inputs": [
        {
          "indexed": true,
          "internalType": "address",
          "name": "from",
          "type": "address"
        },
        {
          "indexed": true,
          "internalType": "address",
          "name": "to",
          "type": "address"
        },
        {
          "indexed": true,
          "internalType": "uint256",
          "name": "tokenId",
          "type": "uint256"
        }
      ],
      "name": "Transfer",
      "type": "event"
    },
    {
      "inputs": [
        {
          "internalType": "address",
          "name": "to",
          "type": "address"
        },
        {
          "internalType": "uint256",
          "name": "tokenId",
          "type": "uint256"
        }
      ],
      "name": "approve",
      "outputs": [],
      "stateMutability": "nonpayable",
      "type": "function"
    },
    {
      "inputs": [
        {
          "internalType": "address",
          "name": "owner",
          "type": "address"
        }
      ],
      "name": "balanceOf",
      "outputs": [
        {
          "internalType": "uint256",
          "name": "",
          "type": "uint256"
        }
      ],
      "stateMutability": "view",
      "type": "function",
      "constant": true
    },
    {
      "inputs": [
        {
          "internalType": "uint256",
          "name": "tokenId",
          "type": "uint256"
        }
      ],
      "name": "getApproved",
      "outputs": [
        {
          "internalType": "address",
          "name": "",
          "type": "address"
        }
      ],
      "stateMutability": "view",
      "type": "function",
      "constant": true
    },
    {
      "inputs": [
        {
          "internalType": "address",
          "name": "owner",
          "type": "address"
        },
        {
          "internalType": "address",
          "name": "operator",
          "type": "address"
        }
      ],
      "name": "isApprovedForAll",
      "outputs": [
        {
          "internalType": "bool",
          "name": "",
          "type": "bool"
        }
      ],
      "stateMutability": "view",
      "type": "function",
      "constant": true
    },
    {
      "inputs": [],
      "name": "name",
      "outputs": [
        {
          "internalType": "string",
          "name": "",
          "type": "string"
        }
      ],
      "stateMutability": "view",
      "type": "function",
      "constant": true
    },
    {
      "inputs": [],
      "name": "owner",
      "outputs": [
        {
          "internalType": "address",
          "name": "",
          "type": "address"
        }
      ],
      "stateMutability": "view",
      "type": "function",
      "constant": true
    },
    {
      "inputs": [
        {
          "internalType": "uint256",
          "name": "tokenId",
          "type": "uint256"
        }
      ],
      "name": "ownerOf",
      "outputs": [
        {
          "internalType": "address",
          "name": "",
          "type": "address"
        }
      ],
      "stateMutability": "view",
      "type": "function",
      "constant": true
    },
    {
      "inputs": [],
      "name": "paymentCurrency",
      "outputs": [
        {
          "internalType": "contract ERC20",
          "name": "",
          "type": "address"
        }
      ],
      "stateMutability": "view",
      "type": "function",
      "constant": true
    },
    {
      "inputs": [],
      "name": "renounceOwnership",
      "outputs": [],
      "stateMutability": "nonpayable",
      "type": "function"
    },
    {
      "inputs": [
        {
          "internalType": "address",
          "name": "from",
          "type": "address"
        },
        {
          "internalType": "address",
          "name": "to",
          "type": "address"
        },
        {
          "internalType": "uint256",
          "name": "tokenId",
          "type": "uint256"
        }
      ],
      "name": "safeTransferFrom",
      "outputs": [],
      "stateMutability": "nonpayable",
      "type": "function"
    },
    {
      "inputs": [
        {
          "internalType": "address",
          "name": "from",
          "type": "address"
        },
        {
          "internalType": "address",
          "name": "to",
          "type": "address"
        },
        {
          "internalType": "uint256",
          "name": "tokenId",
          "type": "uint256"
        },
        {
          "internalType": "bytes",
          "name": "data",
          "type": "bytes"
        }
      ],
      "name": "safeTransferFrom",
      "outputs": [],
      "stateMutability": "nonpayable",
      "type": "function"
    },
    {
      "inputs": [
        {
          "internalType": "address",
          "name": "operator",
          "type": "address"
        },
        {
          "internalType": "bool",
          "name": "approved",
          "type": "bool"
        }
      ],
      "name": "setApprovalForAll",
      "outputs": [],
      "stateMutability": "nonpayable",
      "type": "function"
    },
    {
      "inputs": [
        {
          "internalType": "bytes4",
          "name": "interfaceId",
          "type": "bytes4"
        }
      ],
      "name": "supportsInterface",
      "outputs": [
        {
          "internalType": "bool",
          "name": "",
          "type": "bool"
        }
      ],
      "stateMutability": "view",
      "type": "function",
      "constant": true
    },
    {
      "inputs": [],
      "name": "symbol",
      "outputs": [
        {
          "internalType": "string",
          "name": "",
          "type": "string"
        }
      ],
      "stateMutability": "view",
      "type": "function",
      "constant": true
    },
    {
      "inputs": [
        {
          "internalType": "uint256",
          "name": "tokenId",
          "type": "uint256"
        }
      ],
      "name": "tokenURI",
      "outputs": [
        {
          "internalType": "string",
          "name": "",
          "type": "string"
        }
      ],
      "stateMutability": "view",
      "type": "function",
      "constant": true
    },
    {
      "inputs": [
        {
          "internalType": "address",
          "name": "from",
          "type": "address"
        },
        {
          "internalType": "address",
          "name": "to",
          "type": "address"
        },
        {
          "internalType": "uint256",
          "name": "tokenId",
          "type": "uint256"
        }
      ],
      "name": "transferFrom",
      "outputs": [],
      "stateMutability": "nonpayable",
      "type": "function"
    },
    {
      "inputs": [
        {
          "internalType": "address",
          "name": "newOwner",
          "type": "address"
        }
      ],
      "name": "transferOwnership",
      "outputs": [],
      "stateMutability": "nonpayable",
      "type": "function"
    },
    {
      "inputs": [
        {
          "internalType": "address",
          "name": "to",
          "type": "address"
        },
        {
          "internalType": "string",
          "name": "uri",
          "type": "string"
        }
      ],
      "name": "safeMint",
      "outputs": [],
      "stateMutability": "nonpayable",
      "type": "function"
    },
    {
      "inputs": [],
      "name": "buyEgg",
      "outputs": [],
      "stateMutability": "nonpayable",
      "type": "function"
    }
  ],
  "bytecode": "0x60806040523480156200001157600080fd5b5060405162003995380380620039958339818101604052810190620000379190620002ef565b6040518060400160405280600781526020017f456767204e4654000000000000000000000000000000000000000000000000008152506040518060400160405280600481526020017f45474753000000000000000000000000000000000000000000000000000000008152508160009081620000b491906200059b565b508060019081620000c691906200059b565b505050620000e9620000dd620001a360201b60201c565b620001ab60201b60201c565b600073ffffffffffffffffffffffffffffffffffffffff168173ffffffffffffffffffffffffffffffffffffffff16036200015b576040517f08c379a0000000000000000000000000000000000000000000000000000000008152600401620001529062000709565b60405180910390fd5b80600960006101000a81548173ffffffffffffffffffffffffffffffffffffffff021916908373ffffffffffffffffffffffffffffffffffffffff160217905550506200072b565b600033905090565b6000600760009054906101000a900473ffffffffffffffffffffffffffffffffffffffff16905081600760006101000a81548173ffffffffffffffffffffffffffffffffffffffff021916908373ffffffffffffffffffffffffffffffffffffffff1602179055508173ffffffffffffffffffffffffffffffffffffffff168173ffffffffffffffffffffffffffffffffffffffff167f8be0079c531659141344cd1fd0a4f28419497f9722a3daafe3b4186f6b6457e060405160405180910390a35050565b600080fd5b600073ffffffffffffffffffffffffffffffffffffffff82169050919050565b6000620002a38262000276565b9050919050565b6000620002b78262000296565b9050919050565b620002c981620002aa565b8114620002d557600080fd5b50565b600081519050620002e981620002be565b92915050565b60006020828403121562000308576200030762000271565b5b60006200031884828501620002d8565b91505092915050565b600081519050919050565b7f4e487b7100000000000000000000000000000000000000000000000000000000600052604160045260246000fd5b7f4e487b7100000000000000000000000000000000000000000000000000000000600052602260045260246000fd5b60006002820490506001821680620003a357607f821691505b602082108103620003b957620003b86200035b565b5b50919050565b60008190508160005260206000209050919050565b60006020601f8301049050919050565b600082821b905092915050565b600060088302620004237fffffffffffffffffffffffffffffffffffffffffffffffffffffffffffffffff82620003e4565b6200042f8683620003e4565b95508019841693508086168417925050509392505050565b6000819050919050565b6000819050919050565b60006200047c62000476620004708462000447565b62000451565b62000447565b9050919050565b6000819050919050565b62000498836200045b565b620004b0620004a78262000483565b848454620003f1565b825550505050565b600090565b620004c7620004b8565b620004d48184846200048d565b505050565b5b81811015620004fc57620004f0600082620004bd565b600181019050620004da565b5050565b601f8211156200054b576200051581620003bf565b6200052084620003d4565b8101602085101562000530578190505b620005486200053f85620003d4565b830182620004d9565b50505b505050565b600082821c905092915050565b6000620005706000198460080262000550565b1980831691505092915050565b60006200058b83836200055d565b9150826002028217905092915050565b620005a68262000321565b67ffffffffffffffff811115620005c257620005c16200032c565b5b620005ce82546200038a565b620005db82828562000500565b600060209050601f831160018114620006135760008415620005fe578287015190505b6200060a85826200057d565b8655506200067a565b601f1984166200062386620003bf565b60005b828110156200064d5784890151825560018201915060208501945060208101905062000626565b868310156200066d578489015162000669601f8916826200055d565b8355505b6001600288020188555050505b505050505050565b600082825260208201905092915050565b7f546f6b656e20616464726573732063616e27742062652061646472657373207a60008201527f65726f0000000000000000000000000000000000000000000000000000000000602082015250565b6000620006f160238362000682565b9150620006fe8262000693565b604082019050919050565b600060208201905081810360008301526200072481620006e2565b9050919050565b61325a806200073b6000396000f3fe608060405234801561001057600080fd5b50600436106101215760003560e01c8063715018a6116100ad578063b88d4fde11610071578063b88d4fde146102e2578063c87b56dd146102fe578063d204c45e1461032e578063e985e9c51461034a578063f2fde38b1461037a57610121565b8063715018a6146102765780637d635502146102805780638da5cb5b1461028a57806395d89b41146102a8578063a22cb465146102c657610121565b806323b872dd116100f457806323b872dd146101c05780633d15cc6d146101dc57806342842e0e146101fa5780636352211e1461021657806370a082311461024657610121565b806301ffc9a71461012657806306fdde0314610156578063081812fc14610174578063095ea7b3146101a4575b600080fd5b610140600480360381019061013b9190611daa565b610396565b60405161014d9190611df2565b60405180910390f35b61015e610478565b60405161016b9190611e9d565b60405180910390f35b61018e60048036038101906101899190611ef5565b61050a565b60405161019b9190611f63565b60405180910390f35b6101be60048036038101906101b99190611faa565b610550565b005b6101da60048036038101906101d59190611fea565b610667565b005b6101e46106c7565b6040516101f1919061209c565b60405180910390f35b610214600480360381019061020f9190611fea565b6106ed565b005b610230600480360381019061022b9190611ef5565b61070d565b60405161023d9190611f63565b60405180910390f35b610260600480360381019061025b91906120b7565b610793565b60405161026d91906120f3565b60405180910390f35b61027e61084a565b005b61028861085e565b005b61029261099d565b60405161029f9190611f63565b60405180910390f35b6102b06109c7565b6040516102bd9190611e9d565b60405180910390f35b6102e060048036038101906102db919061213a565b610a59565b005b6102fc60048036038101906102f791906122af565b610a6f565b005b61031860048036038101906103139190611ef5565b610ad1565b6040516103259190611e9d565b60405180910390f35b610348600480360381019061034391906123d3565b610be3565b005b610364600480360381019061035f919061242f565b610c1c565b6040516103719190611df2565b60405180910390f35b610394600480360381019061038f91906120b7565b610cb0565b005b60007f80ac58cd000000000000000000000000000000000000000000000000000000007bffffffffffffffffffffffffffffffffffffffffffffffffffffffff1916827bffffffffffffffffffffffffffffffffffffffffffffffffffffffff1916148061046157507f5b5e139f000000000000000000000000000000000000000000000000000000007bffffffffffffffffffffffffffffffffffffffffffffffffffffffff1916827bffffffffffffffffffffffffffffffffffffffffffffffffffffffff1916145b80610471575061047082610d33565b5b9050919050565b6060600080546104879061249e565b80601f01602080910402602001604051908101604052809291908181526020018280546104b39061249e565b80156105005780601f106104d557610100808354040283529160200191610500565b820191906000526020600020905b8154815290600101906020018083116104e357829003601f168201915b5050505050905090565b600061051582610d9d565b6004600083815260200190815260200160002060009054906101000a900473ffffffffffffffffffffffffffffffffffffffff169050919050565b600061055b8261070d565b90508073ffffffffffffffffffffffffffffffffffffffff168373ffffffffffffffffffffffffffffffffffffffff16036105cb576040517f08c379a00000000000000000000000000000000000000000000000000000000081526004016105c290612541565b60405180910390fd5b8073ffffffffffffffffffffffffffffffffffffffff166105ea610de8565b73ffffffffffffffffffffffffffffffffffffffff161480610619575061061881610613610de8565b610c1c565b5b610658576040517f08c379a000000000000000000000000000000000000000000000000000000000815260040161064f906125d3565b60405180910390fd5b6106628383610df0565b505050565b610678610672610de8565b82610ea9565b6106b7576040517f08c379a00000000000000000000000000000000000000000000000000000000081526004016106ae90612665565b60405180910390fd5b6106c2838383610f3e565b505050565b600960009054906101000a900473ffffffffffffffffffffffffffffffffffffffff1681565b61070883838360405180602001604052806000815250610a6f565b505050565b60008061071983611237565b9050600073ffffffffffffffffffffffffffffffffffffffff168173ffffffffffffffffffffffffffffffffffffffff160361078a576040517f08c379a0000000000000000000000000000000000000000000000000000000008152600401610781906126d1565b60405180910390fd5b80915050919050565b60008073ffffffffffffffffffffffffffffffffffffffff168273ffffffffffffffffffffffffffffffffffffffff1603610803576040517f08c379a00000000000000000000000000000000000000000000000000000000081526004016107fa90612763565b60405180910390fd5b600360008373ffffffffffffffffffffffffffffffffffffffff1673ffffffffffffffffffffffffffffffffffffffff168152602001908152602001600020549050919050565b610852611274565b61085c60006112f2565b565b600960009054906101000a900473ffffffffffffffffffffffffffffffffffffffff1673ffffffffffffffffffffffffffffffffffffffff166323b872dd3330678ac7230489e800006040518463ffffffff1660e01b81526004016108c5939291906127be565b6020604051808303816000875af11580156108e4573d6000803e3d6000fd5b505050506040513d601f19601f82011682018060405250810190610908919061280a565b610947576040517f08c379a000000000000000000000000000000000000000000000000000000000815260040161093e90612883565b60405180910390fd5b600061095360086113b8565b905061095f60086113c6565b61096933826113dc565b61099a81610976836113fa565b60405160200161098691906129c3565b6040516020818303038152906040526114c8565b50565b6000600760009054906101000a900473ffffffffffffffffffffffffffffffffffffffff16905090565b6060600180546109d69061249e565b80601f0160208091040260200160405190810160405280929190818152602001828054610a029061249e565b8015610a4f5780601f10610a2457610100808354040283529160200191610a4f565b820191906000526020600020905b815481529060010190602001808311610a3257829003601f168201915b5050505050905090565b610a6b610a64610de8565b8383611535565b5050565b610a80610a7a610de8565b83610ea9565b610abf576040517f08c379a0000000000000000000000000000000000000000000000000000000008152600401610ab690612665565b60405180910390fd5b610acb848484846116a1565b50505050565b6060610adc82610d9d565b6000600660008481526020019081526020016000208054610afc9061249e565b80601f0160208091040260200160405190810160405280929190818152602001828054610b289061249e565b8015610b755780601f10610b4a57610100808354040283529160200191610b75565b820191906000526020600020905b815481529060010190602001808311610b5857829003601f168201915b505050505090506000610b866116fd565b90506000815103610b9b578192505050610bde565b600082511115610bd0578082604051602001610bb89291906129f0565b60405160208183030381529060405292505050610bde565b610bd984611714565b925050505b919050565b610beb611274565b6000610bf760086113b8565b9050610c0360086113c6565b610c0d83826113dc565b610c1781836114c8565b505050565b6000600560008473ffffffffffffffffffffffffffffffffffffffff1673ffffffffffffffffffffffffffffffffffffffff16815260200190815260200160002060008373ffffffffffffffffffffffffffffffffffffffff1673ffffffffffffffffffffffffffffffffffffffff16815260200190815260200160002060009054906101000a900460ff16905092915050565b610cb8611274565b600073ffffffffffffffffffffffffffffffffffffffff168173ffffffffffffffffffffffffffffffffffffffff1603610d27576040517f08c379a0000000000000000000000000000000000000000000000000000000008152600401610d1e90612a86565b60405180910390fd5b610d30816112f2565b50565b60007f01ffc9a7000000000000000000000000000000000000000000000000000000007bffffffffffffffffffffffffffffffffffffffffffffffffffffffff1916827bffffffffffffffffffffffffffffffffffffffffffffffffffffffff1916149050919050565b610da68161177c565b610de5576040517f08c379a0000000000000000000000000000000000000000000000000000000008152600401610ddc906126d1565b60405180910390fd5b50565b600033905090565b816004600083815260200190815260200160002060006101000a81548173ffffffffffffffffffffffffffffffffffffffff021916908373ffffffffffffffffffffffffffffffffffffffff160217905550808273ffffffffffffffffffffffffffffffffffffffff16610e638361070d565b73ffffffffffffffffffffffffffffffffffffffff167f8c5be1e5ebec7d5bd14f71427d1e84f3dd0314c0f7b2291e5b200ac8c7c3b92560405160405180910390a45050565b600080610eb58361070d565b90508073ffffffffffffffffffffffffffffffffffffffff168473ffffffffffffffffffffffffffffffffffffffff161480610ef75750610ef68185610c1c565b5b80610f3557508373ffffffffffffffffffffffffffffffffffffffff16610f1d8461050a565b73ffffffffffffffffffffffffffffffffffffffff16145b91505092915050565b8273ffffffffffffffffffffffffffffffffffffffff16610f5e8261070d565b73ffffffffffffffffffffffffffffffffffffffff1614610fb4576040517f08c379a0000000000000000000000000000000000000000000000000000000008152600401610fab90612b18565b60405180910390fd5b600073ffffffffffffffffffffffffffffffffffffffff168273ffffffffffffffffffffffffffffffffffffffff1603611023576040517f08c379a000000000000000000000000000000000000000000000000000000000815260040161101a90612baa565b60405180910390fd5b61103083838360016117bd565b8273ffffffffffffffffffffffffffffffffffffffff166110508261070d565b73ffffffffffffffffffffffffffffffffffffffff16146110a6576040517f08c379a000000000000000000000000000000000000000000000000000000000815260040161109d90612b18565b60405180910390fd5b6004600082815260200190815260200160002060006101000a81549073ffffffffffffffffffffffffffffffffffffffff02191690556001600360008573ffffffffffffffffffffffffffffffffffffffff1673ffffffffffffffffffffffffffffffffffffffff168152602001908152602001600020600082825403925050819055506001600360008473ffffffffffffffffffffffffffffffffffffffff1673ffffffffffffffffffffffffffffffffffffffff16815260200190815260200160002060008282540192505081905550816002600083815260200190815260200160002060006101000a81548173ffffffffffffffffffffffffffffffffffffffff021916908373ffffffffffffffffffffffffffffffffffffffff160217905550808273ffffffffffffffffffffffffffffffffffffffff168473ffffffffffffffffffffffffffffffffffffffff167fddf252ad1be2c89b69c2b068fc378daa952ba7f163c4a11628f55a4df523b3ef60405160405180910390a461123283838360016117c3565b505050565b60006002600083815260200190815260200160002060009054906101000a900473ffffffffffffffffffffffffffffffffffffffff169050919050565b61127c610de8565b73ffffffffffffffffffffffffffffffffffffffff1661129a61099d565b73ffffffffffffffffffffffffffffffffffffffff16146112f0576040517f08c379a00000000000000000000000000000000000000000000000000000000081526004016112e790612c16565b60405180910390fd5b565b6000600760009054906101000a900473ffffffffffffffffffffffffffffffffffffffff16905081600760006101000a81548173ffffffffffffffffffffffffffffffffffffffff021916908373ffffffffffffffffffffffffffffffffffffffff1602179055508173ffffffffffffffffffffffffffffffffffffffff168173ffffffffffffffffffffffffffffffffffffffff167f8be0079c531659141344cd1fd0a4f28419497f9722a3daafe3b4186f6b6457e060405160405180910390a35050565b600081600001549050919050565b6001816000016000828254019250508190555050565b6113f68282604051806020016040528060008152506117c9565b5050565b60606000600161140984611824565b01905060008167ffffffffffffffff81111561142857611427612184565b5b6040519080825280601f01601f19166020018201604052801561145a5781602001600182028036833780820191505090505b509050600082602001820190505b6001156114bd578080600190039150507f3031323334353637383961626364656600000000000000000000000000000000600a86061a8153600a85816114b1576114b0612c36565b5b04945060008503611468575b819350505050919050565b6114d18261177c565b611510576040517f08c379a000000000000000000000000000000000000000000000000000000000815260040161150790612cd7565b60405180910390fd5b806006600084815260200190815260200160002090816115309190612e99565b505050565b8173ffffffffffffffffffffffffffffffffffffffff168373ffffffffffffffffffffffffffffffffffffffff16036115a3576040517f08c379a000000000000000000000000000000000000000000000000000000000815260040161159a90612fb7565b60405180910390fd5b80600560008573ffffffffffffffffffffffffffffffffffffffff1673ffffffffffffffffffffffffffffffffffffffff16815260200190815260200160002060008473ffffffffffffffffffffffffffffffffffffffff1673ffffffffffffffffffffffffffffffffffffffff16815260200190815260200160002060006101000a81548160ff0219169083151502179055508173ffffffffffffffffffffffffffffffffffffffff168373ffffffffffffffffffffffffffffffffffffffff167f17307eab39ab6107e8899845ad3d59bd9653f200f220920489ca2b5937696c31836040516116949190611df2565b60405180910390a3505050565b6116ac848484610f3e565b6116b884848484611977565b6116f7576040517f08c379a00000000000000000000000000000000000000000000000000000000081526004016116ee90613049565b60405180910390fd5b50505050565b606060405180602001604052806000815250905090565b606061171f82610d9d565b60006117296116fd565b905060008151116117495760405180602001604052806000815250611774565b80611753846113fa565b6040516020016117649291906129f0565b6040516020818303038152906040525b915050919050565b60008073ffffffffffffffffffffffffffffffffffffffff1661179e83611237565b73ffffffffffffffffffffffffffffffffffffffff1614159050919050565b50505050565b50505050565b6117d38383611afe565b6117e06000848484611977565b61181f576040517f08c379a000000000000000000000000000000000000000000000000000000000815260040161181690613049565b60405180910390fd5b505050565b600080600090507a184f03e93ff9f4daa797ed6e38ed64bf6a1f0100000000000000008310611882577a184f03e93ff9f4daa797ed6e38ed64bf6a1f010000000000000000838161187857611877612c36565b5b0492506040810190505b6d04ee2d6d415b85acef810000000083106118bf576d04ee2d6d415b85acef810000000083816118b5576118b4612c36565b5b0492506020810190505b662386f26fc1000083106118ee57662386f26fc1000083816118e4576118e3612c36565b5b0492506010810190505b6305f5e1008310611917576305f5e100838161190d5761190c612c36565b5b0492506008810190505b612710831061193c57612710838161193257611931612c36565b5b0492506004810190505b6064831061195f576064838161195557611954612c36565b5b0492506002810190505b600a831061196e576001810190505b80915050919050565b60006119988473ffffffffffffffffffffffffffffffffffffffff16611d1b565b15611af1578373ffffffffffffffffffffffffffffffffffffffff1663150b7a026119c1610de8565b8786866040518563ffffffff1660e01b81526004016119e394939291906130be565b6020604051808303816000875af1925050508015611a1f57506040513d601f19601f82011682018060405250810190611a1c919061311f565b60015b611aa1573d8060008114611a4f576040519150601f19603f3d011682016040523d82523d6000602084013e611a54565b606091505b506000815103611a99576040517f08c379a0000000000000000000000000000000000000000000000000000000008152600401611a9090613049565b60405180910390fd5b805181602001fd5b63150b7a0260e01b7bffffffffffffffffffffffffffffffffffffffffffffffffffffffff1916817bffffffffffffffffffffffffffffffffffffffffffffffffffffffff191614915050611af6565b600190505b949350505050565b600073ffffffffffffffffffffffffffffffffffffffff168273ffffffffffffffffffffffffffffffffffffffff1603611b6d576040517f08c379a0000000000000000000000000000000000000000000000000000000008152600401611b6490613198565b60405180910390fd5b611b768161177c565b15611bb6576040517f08c379a0000000000000000000000000000000000000000000000000000000008152600401611bad90613204565b60405180910390fd5b611bc46000838360016117bd565b611bcd8161177c565b15611c0d576040517f08c379a0000000000000000000000000000000000000000000000000000000008152600401611c0490613204565b60405180910390fd5b6001600360008473ffffffffffffffffffffffffffffffffffffffff1673ffffffffffffffffffffffffffffffffffffffff16815260200190815260200160002060008282540192505081905550816002600083815260200190815260200160002060006101000a81548173ffffffffffffffffffffffffffffffffffffffff021916908373ffffffffffffffffffffffffffffffffffffffff160217905550808273ffffffffffffffffffffffffffffffffffffffff16600073ffffffffffffffffffffffffffffffffffffffff167fddf252ad1be2c89b69c2b068fc378daa952ba7f163c4a11628f55a4df523b3ef60405160405180910390a4611d176000838360016117c3565b5050565b6000808273ffffffffffffffffffffffffffffffffffffffff163b119050919050565b6000604051905090565b600080fd5b600080fd5b60007fffffffff0000000000000000000000000000000000000000000000000000000082169050919050565b611d8781611d52565b8114611d9257600080fd5b50565b600081359050611da481611d7e565b92915050565b600060208284031215611dc057611dbf611d48565b5b6000611dce84828501611d95565b91505092915050565b60008115159050919050565b611dec81611dd7565b82525050565b6000602082019050611e076000830184611de3565b92915050565b600081519050919050565b600082825260208201905092915050565b60005b83811015611e47578082015181840152602081019050611e2c565b60008484015250505050565b6000601f19601f8301169050919050565b6000611e6f82611e0d565b611e798185611e18565b9350611e89818560208601611e29565b611e9281611e53565b840191505092915050565b60006020820190508181036000830152611eb78184611e64565b905092915050565b6000819050919050565b611ed281611ebf565b8114611edd57600080fd5b50565b600081359050611eef81611ec9565b92915050565b600060208284031215611f0b57611f0a611d48565b5b6000611f1984828501611ee0565b91505092915050565b600073ffffffffffffffffffffffffffffffffffffffff82169050919050565b6000611f4d82611f22565b9050919050565b611f5d81611f42565b82525050565b6000602082019050611f786000830184611f54565b92915050565b611f8781611f42565b8114611f9257600080fd5b50565b600081359050611fa481611f7e565b92915050565b60008060408385031215611fc157611fc0611d48565b5b6000611fcf85828601611f95565b9250506020611fe085828601611ee0565b9150509250929050565b60008060006060848603121561200357612002611d48565b5b600061201186828701611f95565b935050602061202286828701611f95565b925050604061203386828701611ee0565b9150509250925092565b6000819050919050565b600061206261205d61205884611f22565b61203d565b611f22565b9050919050565b600061207482612047565b9050919050565b600061208682612069565b9050919050565b6120968161207b565b82525050565b60006020820190506120b1600083018461208d565b92915050565b6000602082840312156120cd576120cc611d48565b5b60006120db84828501611f95565b91505092915050565b6120ed81611ebf565b82525050565b600060208201905061210860008301846120e4565b92915050565b61211781611dd7565b811461212257600080fd5b50565b6000813590506121348161210e565b92915050565b6000806040838503121561215157612150611d48565b5b600061215f85828601611f95565b925050602061217085828601612125565b9150509250929050565b600080fd5b600080fd5b7f4e487b7100000000000000000000000000000000000000000000000000000000600052604160045260246000fd5b6121bc82611e53565b810181811067ffffffffffffffff821117156121db576121da612184565b5b80604052505050565b60006121ee611d3e565b90506121fa82826121b3565b919050565b600067ffffffffffffffff82111561221a57612219612184565b5b61222382611e53565b9050602081019050919050565b82818337600083830152505050565b600061225261224d846121ff565b6121e4565b90508281526020810184848401111561226e5761226d61217f565b5b612279848285612230565b509392505050565b600082601f8301126122965761229561217a565b5b81356122a684826020860161223f565b91505092915050565b600080600080608085870312156122c9576122c8611d48565b5b60006122d787828801611f95565b94505060206122e887828801611f95565b93505060406122f987828801611ee0565b925050606085013567ffffffffffffffff81111561231a57612319611d4d565b5b61232687828801612281565b91505092959194509250565b600067ffffffffffffffff82111561234d5761234c612184565b5b61235682611e53565b9050602081019050919050565b600061237661237184612332565b6121e4565b9050828152602081018484840111156123925761239161217f565b5b61239d848285612230565b509392505050565b600082601f8301126123ba576123b961217a565b5b81356123ca848260208601612363565b91505092915050565b600080604083850312156123ea576123e9611d48565b5b60006123f885828601611f95565b925050602083013567ffffffffffffffff81111561241957612418611d4d565b5b612425858286016123a5565b9150509250929050565b6000806040838503121561244657612445611d48565b5b600061245485828601611f95565b925050602061246585828601611f95565b9150509250929050565b7f4e487b7100000000000000000000000000000000000000000000000000000000600052602260045260246000fd5b600060028204905060018216806124b657607f821691505b6020821081036124c9576124c861246f565b5b50919050565b7f4552433732313a20617070726f76616c20746f2063757272656e74206f776e6560008201527f7200000000000000000000000000000000000000000000000000000000000000602082015250565b600061252b602183611e18565b9150612536826124cf565b604082019050919050565b6000602082019050818103600083015261255a8161251e565b9050919050565b7f4552433732313a20617070726f76652063616c6c6572206973206e6f7420746f60008201527f6b656e206f776e6572206f7220617070726f76656420666f7220616c6c000000602082015250565b60006125bd603d83611e18565b91506125c882612561565b604082019050919050565b600060208201905081810360008301526125ec816125b0565b9050919050565b7f4552433732313a2063616c6c6572206973206e6f7420746f6b656e206f776e6560008201527f72206f7220617070726f76656400000000000000000000000000000000000000602082015250565b600061264f602d83611e18565b915061265a826125f3565b604082019050919050565b6000602082019050818103600083015261267e81612642565b9050919050565b7f4552433732313a20696e76616c696420746f6b656e2049440000000000000000600082015250565b60006126bb601883611e18565b91506126c682612685565b602082019050919050565b600060208201905081810360008301526126ea816126ae565b9050919050565b7f4552433732313a2061646472657373207a65726f206973206e6f74206120766160008201527f6c6964206f776e65720000000000000000000000000000000000000000000000602082015250565b600061274d602983611e18565b9150612758826126f1565b604082019050919050565b6000602082019050818103600083015261277c81612740565b9050919050565b6000819050919050565b60006127a86127a361279e84612783565b61203d565b611ebf565b9050919050565b6127b88161278d565b82525050565b60006060820190506127d36000830186611f54565b6127e06020830185611f54565b6127ed60408301846127af565b949350505050565b6000815190506128048161210e565b92915050565b6000602082840312156128205761281f611d48565b5b600061282e848285016127f5565b91505092915050565b7f4661696c656420746f2070726f63657373207061796d656e7421000000000000600082015250565b600061286d601a83611e18565b915061287882612837565b602082019050919050565b6000602082019050818103600083015261289c81612860565b9050919050565b600081905092915050565b7f68747470733a2f2f676174657761792e70696e6174612e636c6f75642f69706660008201527f732f516d59446d38427a796534524d53376839485576314b6f7570616a71586360208201527f73664b5557774d6547767343335a6b412f6567676f3030000000000000000000604082015250565b60006129306057836128a3565b915061293b826128ae565b605782019050919050565b600061295182611e0d565b61295b81856128a3565b935061296b818560208601611e29565b80840191505092915050565b7f2e6a736f6e000000000000000000000000000000000000000000000000000000600082015250565b60006129ad6005836128a3565b91506129b882612977565b600582019050919050565b60006129ce82612923565b91506129da8284612946565b91506129e5826129a0565b915081905092915050565b60006129fc8285612946565b9150612a088284612946565b91508190509392505050565b7f4f776e61626c653a206e6577206f776e657220697320746865207a65726f206160008201527f6464726573730000000000000000000000000000000000000000000000000000602082015250565b6000612a70602683611e18565b9150612a7b82612a14565b604082019050919050565b60006020820190508181036000830152612a9f81612a63565b9050919050565b7f4552433732313a207472616e736665722066726f6d20696e636f72726563742060008201527f6f776e6572000000000000000000000000000000000000000000000000000000602082015250565b6000612b02602583611e18565b9150612b0d82612aa6565b604082019050919050565b60006020820190508181036000830152612b3181612af5565b9050919050565b7f4552433732313a207472616e7366657220746f20746865207a65726f2061646460008201527f7265737300000000000000000000000000000000000000000000000000000000602082015250565b6000612b94602483611e18565b9150612b9f82612b38565b604082019050919050565b60006020820190508181036000830152612bc381612b87565b9050919050565b7f4f776e61626c653a2063616c6c6572206973206e6f7420746865206f776e6572600082015250565b6000612c00602083611e18565b9150612c0b82612bca565b602082019050919050565b60006020820190508181036000830152612c2f81612bf3565b9050919050565b7f4e487b7100000000000000000000000000000000000000000000000000000000600052601260045260246000fd5b7f45524337323155524953746f726167653a2055524920736574206f66206e6f6e60008201527f6578697374656e7420746f6b656e000000000000000000000000000000000000602082015250565b6000612cc1602e83611e18565b9150612ccc82612c65565b604082019050919050565b60006020820190508181036000830152612cf081612cb4565b9050919050565b60008190508160005260206000209050919050565b60006020601f8301049050919050565b600082821b905092915050565b600060088302612d597fffffffffffffffffffffffffffffffffffffffffffffffffffffffffffffffff82612d1c565b612d638683612d1c565b95508019841693508086168417925050509392505050565b6000612d96612d91612d8c84611ebf565b61203d565b611ebf565b9050919050565b6000819050919050565b612db083612d7b565b612dc4612dbc82612d9d565b848454612d29565b825550505050565b600090565b612dd9612dcc565b612de4818484612da7565b505050565b5b81811015612e0857612dfd600082612dd1565b600181019050612dea565b5050565b601f821115612e4d57612e1e81612cf7565b612e2784612d0c565b81016020851015612e36578190505b612e4a612e4285612d0c565b830182612de9565b50505b505050565b600082821c905092915050565b6000612e7060001984600802612e52565b1980831691505092915050565b6000612e898383612e5f565b9150826002028217905092915050565b612ea282611e0d565b67ffffffffffffffff811115612ebb57612eba612184565b5b612ec5825461249e565b612ed0828285612e0c565b600060209050601f831160018114612f035760008415612ef1578287015190505b612efb8582612e7d565b865550612f63565b601f198416612f1186612cf7565b60005b82811015612f3957848901518255600182019150602085019450602081019050612f14565b86831015612f565784890151612f52601f891682612e5f565b8355505b6001600288020188555050505b505050505050565b7f4552433732313a20617070726f766520746f2063616c6c657200000000000000600082015250565b6000612fa1601983611e18565b9150612fac82612f6b565b602082019050919050565b60006020820190508181036000830152612fd081612f94565b9050919050565b7f4552433732313a207472616e7366657220746f206e6f6e20455243373231526560008201527f63656976657220696d706c656d656e7465720000000000000000000000000000602082015250565b6000613033603283611e18565b915061303e82612fd7565b604082019050919050565b6000602082019050818103600083015261306281613026565b9050919050565b600081519050919050565b600082825260208201905092915050565b600061309082613069565b61309a8185613074565b93506130aa818560208601611e29565b6130b381611e53565b840191505092915050565b60006080820190506130d36000830187611f54565b6130e06020830186611f54565b6130ed60408301856120e4565b81810360608301526130ff8184613085565b905095945050505050565b60008151905061311981611d7e565b92915050565b60006020828403121561313557613134611d48565b5b60006131438482850161310a565b91505092915050565b7f4552433732313a206d696e7420746f20746865207a65726f2061646472657373600082015250565b6000613182602083611e18565b915061318d8261314c565b602082019050919050565b600060208201905081810360008301526131b181613175565b9050919050565b7f4552433732313a20746f6b656e20616c7265616479206d696e74656400000000600082015250565b60006131ee601c83611e18565b91506131f9826131b8565b602082019050919050565b6000602082019050818103600083015261321d816131e1565b905091905056fea2646970667358221220b70d5f5dde979c9bc9876c5278ee2b6938d05e37641edda684c03adf3bc384fd64736f6c63430008100033",
  "immutableReferences": {},
  "source": "// SPDX-License-Identifier: MIT\r\npragma solidity ^0.8.4;\r\n\r\nimport \"@openzeppelin/contracts/token/ERC721/ERC721.sol\";\r\nimport \"@openzeppelin/contracts/token/ERC721/extensions/ERC721URIStorage.sol\";\r\nimport \"@openzeppelin/contracts/access/Ownable.sol\";\r\nimport \"@openzeppelin/contracts/utils/Counters.sol\";\r\nimport \"@openzeppelin/contracts/utils/Strings.sol\";\r\nimport \"@openzeppelin/contracts/token/ERC20/ERC20.sol\";\r\n\r\ncontract EggNFT is ERC721URIStorage, Ownable {\r\n    using Counters for Counters.Counter;\r\n\r\n    Counters.Counter private _tokenIdCounter;\r\n\r\n    ERC20 public paymentCurrency;\r\n\r\n    constructor(ERC20 _paymentCurrency) ERC721(\"Egg NFT\", \"EGGS\") {\r\n        require(address(_paymentCurrency) != address(0), \"Token address can't be address zero\");\r\n        paymentCurrency = _paymentCurrency;\r\n    }\r\n\r\n    function safeMint(address to, string memory uri) public onlyOwner {\r\n        uint256 tokenId = _tokenIdCounter.current();\r\n        _tokenIdCounter.increment();\r\n        _safeMint(to, tokenId);\r\n        _setTokenURI(tokenId, uri);\r\n    }\r\n\r\n    function buyEgg() public {\r\n        require(paymentCurrency.transferFrom(msg.sender, address(this), 10 ether), \"Failed to process payment!\");\r\n        uint256 tokenId = _tokenIdCounter.current();\r\n        _tokenIdCounter.increment();\r\n        _safeMint(msg.sender, tokenId);\r\n        _setTokenURI(\r\n            tokenId,\r\n            string(\r\n                abi.encodePacked(\r\n                    \"https://gateway.pinata.cloud/ipfs/QmYDm8Bzye4RMS7h9HUv1KoupajqXcsfKUWwMeGvsC3ZkA/eggo00\",\r\n                    Strings.toString(tokenId),\r\n                    \".json\"\r\n                )\r\n            )\r\n        );\r\n    }\r\n}\r\n",
  "sourcePath": "C:\\Users\\sumer\\OneDrive\\Desktop\\Home\\Projects\\SuccessBackend\\contracts\\Eggs.sol",
  "compiler": {
    "name": "solc",
    "version": "0.8.16+commit.07a7930e.Emscripten.clang"
  },
  "schemaVersion": "3.4.13",
  "updatedAt": "2023-05-20T12:32:12.289Z",
  "networkType": "ethereum",
  "devdoc": {
    "kind": "dev",
    "methods": {
      "approve(address,uint256)": {
        "details": "See {IERC721-approve}."
      },
      "balanceOf(address)": {
        "details": "See {IERC721-balanceOf}."
      },
      "getApproved(uint256)": {
        "details": "See {IERC721-getApproved}."
      },
      "isApprovedForAll(address,address)": {
        "details": "See {IERC721-isApprovedForAll}."
      },
      "name()": {
        "details": "See {IERC721Metadata-name}."
      },
      "owner()": {
        "details": "Returns the address of the current owner."
      },
      "ownerOf(uint256)": {
        "details": "See {IERC721-ownerOf}."
      },
      "renounceOwnership()": {
        "details": "Leaves the contract without owner. It will not be possible to call `onlyOwner` functions anymore. Can only be called by the current owner. NOTE: Renouncing ownership will leave the contract without an owner, thereby removing any functionality that is only available to the owner."
      },
      "safeTransferFrom(address,address,uint256)": {
        "details": "See {IERC721-safeTransferFrom}."
      },
      "safeTransferFrom(address,address,uint256,bytes)": {
        "details": "See {IERC721-safeTransferFrom}."
      },
      "setApprovalForAll(address,bool)": {
        "details": "See {IERC721-setApprovalForAll}."
      },
      "supportsInterface(bytes4)": {
        "details": "See {IERC165-supportsInterface}."
      },
      "symbol()": {
        "details": "See {IERC721Metadata-symbol}."
      },
      "tokenURI(uint256)": {
        "details": "See {IERC721Metadata-tokenURI}."
      },
      "transferFrom(address,address,uint256)": {
        "details": "See {IERC721-transferFrom}."
      },
      "transferOwnership(address)": {
        "details": "Transfers ownership of the contract to a new account (`newOwner`). Can only be called by the current owner."
      }
    },
    "version": 1
  },
  "userdoc": {
    "kind": "user",
    "methods": {},
    "version": 1
  }
}